8=FIX.4.4^A9=323^A35=U1001^A34=2^A49=BTCC-FIX-SERVER^A52=20141122-14:44:03.374^A56=9dfa65ee-e023-48fb-a8c1-cba6ea4b01ff^A1=1416667441762000:Basic OWRmYTY1ZWUtZTAyMy00OGZiLWE4YzEtY2JhNmVhNGIwMWZmOmJhNWFhZDA2M2NiM2E5MzM4MjE4ZDViZTU4NDRiYzg4MTRhYjVhMTQ=^A8000=dd6a228e-c2a5-4915-bfa3-78ba1fac91c3^A9000=3^A15=BTC^A8001=0.001^A15=LTC^A8001=0^A15=CNY^A8001=0^A10=169^A