8=FIX.4.4^A9=211^A35=X^A34=5^A49=BTCC-FIX-SERVER^A52=20141016-18:05:16.747^A56=9dfa65ee-e023-48fb-a8c1-cba6ea4b01ff^A268=2^A279=1^A269=1^A270=2325.53^A272=20141016^A273=18:05:16.000^A279=1^A269=B^A271=53826.1999^A272=20141016^A273=18:05:16.000^A10=203^A
